:020000040800F2
:100000001008002089010008A50F0008B9060008A3
:10001000A10F00084F0200089F1C0008000000000C
:100020000000000000000000000000009111000826
:100030003D03000800000000191000083F130008ED
:10004000A3010008A3010008A3010008A301000800
:10005000A3010008A3010008A3010008A3010008F0
:10006000A3010008A3010008A3010008A3010008E0
:10007000A3010008A3010008A3010008A3010008D0
:10008000A3010008A3010008A3010008A3010008C0
:10009000A3010008A3010008A3010008A3010008B0
:1000A000A301000801140008A3010008A30100082F
:1000B000A3010008A3010008A3010008A301000890
:1000C000A3010008A3010008A3010008A301000880
:1000D000A30100088D190008C9190008A301000830
:1000E000A3010008A3010008A301000800F002F822
:1000F00000F03AF80AA090E8000C82448344AAF188
:100100000107DA4501D100F02FF8AFF2090EBAE885
:100110000F0013F0010F18BFFB1A43F0010318473B
:10012000183D0000383D0000103A24BF78C878C15F
:10013000FAD8520724BF30C830C144BF04680C60ED
:10014000704700000023002400250026103A28BF35
:1001500078C1FBD8520728BF30C148BF0B60704739
:100160001FB51FBD10B510BD00F046F81146FFF7D2
:10017000F7FF01F0A9FE00F064F803B4FFF7F2FF07
:1001800003BC01F017FE00000948804709480047FA
:10019000FEE7FEE7FEE7FEE7FEE7FEE7FEE7FEE737
:1001A000FEE7FEE704480549054A064B7047000094
:1001B00041130008ED000008100200201008002084
:1001C00010040020100400207047704770477047EB
:1001D000704710B500F008F8006810BD10B504466F
:1001E00000F002F8046010BD00487047B001002024
:1001F00000487047B00100207546FFF7F9FFAE4692
:1002000005006946534620F00700854618B020B522
:10021000FFF7C8FFBDE820404FF000064FF0000791
:100220004FF000084FF0000B21F00701AC46ACE89E
:10023000C009ACE8C009ACE8C009ACE8C0098D460B
:1002400070470446AFF300802046FFF796FF00BFDB
:10025000FEE7000010B501F05DF801F00FF8194855
:10026000007858BB184890F84900C101164890F82A
:100270004A0041EA8011144890F84B0041EA4011CD
:10028000114890F84C0041EA00100F4991F84510D0
:1002900040EAC1010C4890F8460041EA80010A4852
:1002A00090F8470041EA4000074991F84810084398
:1002B000C1B20448817001200249087000F048FE74
:1002C00010BD000024000020780000205A2809D129
:1002D0001949097831B90021174A5170012111706B
:1002E0000021D17114490978012924D11249CA7910
:1002F000891C8854891EC979491C0F4AD171A528C7
:1003000003D11146C979052903D10B49C9790529BA
:1003100005DD0021084A51701170D1710BE0A5284C
:1003200009D10549C979052905D10121024A517030
:1003300000211170D17170472B0000207047000020
:1003400070B50546284600F0ABF92448B0F90C001A
:10035000002803DD2148B0F90C0003E01F48B0F984
:100360000C0040421E490880084600881A281CDDFF
:100370001A4890F828000A3844B200211748018230
:10038000002C02DA04F1140044B21448807B0128E6
:100390000AD012481430015D143841850146488D59
:1003A00003F0CEFA0D49C86200BF0C48008A4FF630
:1003B000FF71884205DA0948008A401C81B207486B
:1003C00001820648008A0A2803DA01210348817362
:1003D00002E000210148817370BD00000C01002083
:1003E0004C0000202DE9F0410246002500260020A7
:1003F00000230024002791F803C00CF00F0591F8AA
:1004000003C00CF0100CBCF1000F03D091F802C037
:100410004CEA050591F800C0BCF1000F31D014681A
:1004200000202BE04FF0010C0CFA00F3B1F800C0F3
:100430000CEA03069E4220D183004FF00F0C0CFA09
:1004400003F7BC4305FA03FC4CEA040491F803C02B
:10045000BCF1280F06D14FF0010C0CFA00FCC2F8D9
:1004600014C00AE091F803C0BCF1480F05D14FF069
:10047000010C0CFA00FCC2F810C0401C0828D1D3B3
:100480001460B1F800C0BCF1FF0F34DD54680020E7
:100490002EE000F1080C4FF0010808FA0CF3B1F857
:1004A00000C00CEA03069E4221D183004FF00F0CDE
:1004B0000CFA03F7BC4305FA03FC4CEA040491F878
:1004C00003C0BCF1280F05D100F1080C08FA0CF8A4
:1004D000C2F8148091F803C0BCF1480F07D100F1B5
:1004E000080C4FF0010808FA0CF8C2F81080401C04
:1004F0000828CED35460BDE8F0810000F0B50A466C
:10050000002300240021002500F00046B6F1004F32
:1005100002D11D4EF16901E01B4E7168C0F3034525
:1005200083B200F44016B6F5401F08D121F0706187
:10053000154E766826F07066134F7E6012E000F468
:100540008016B6F5801F06D1032606FA05F4A143EE
:1005500041F0706106E0460D360103FA06F6B1433C
:1005600041F0706122B1460D360103FA06F63143BF
:1005700000F00046B6F1004F02D1034EF16101E0F8
:10058000014E7160F0BD0000000001400161704744
:100590002DE9F04104463A48007809286CD2DFE89A
:1005A00000F0050B15161C22326167005A2C02D18F
:1005B0000120334908705FE05A2C03D103203049F1
:1005C000087002E000202E49087055E054E0152C18
:1005D00002D104202A4908704EE0032C02D10520E4
:1005E0002749087048E000202649087008464480E2
:1005F00040884FF6FF7101EA00202249488006201A
:100600001F49087038E01F48408820441D49488031
:10061000488803F095F907461B4903F0D9F90546C8
:1006200018488168194803F0D3F90646294603F0B3
:100630001FF814498860886803F04AF91149C88096
:1006400007200F49087001200E4908701048006803
:1006500010490968401A104908600D4800680D49A2
:10066000086009E00D48047008200549087003E09F
:1006700000200349087000BF00BFBDE8F081000002
:10068000340000200C010020CDCC4C3FCDCC4C3EA2
:1006900040000020380000203C00002035000020F1
:1006A00004498988411A09B2024A91811146888019
:1006B000704700000C01002000BFFEE708B5802055
:1006C000ADF8000048208DF8030003208DF80200EB
:1006D00069460448FFF786FE80210248FFF756FF6F
:1006E00008BD0000000C014008B58020ADF80000F6
:1006F00010208DF8030003208DF80200694604489D
:10070000FFF770FE80210248FFF740FF08BD0000A0
:10071000000C014010B500200A490860FFF7E4FF13
:1007200000200949C1F89C01022001F0A7FB01202B
:1007300004490860022001F0A1FB00200249C1F831
:10074000980110BD988121420080214208B5012105
:10075000082000F073FCC020ADF8000010208DF8D8
:10076000030003208DF8020069460448FFF73AFEB3
:10077000C0210248FFF70AFF08BD0000000C01403D
:1007800010B500200A490860FFF7AEFF01200949B3
:10079000C1F89C01022001F071FB012004490860AE
:1007A000022001F06BFB00200249C1F8980110BD46
:1007B000988121420080214270B505460024FFF750
:1007C0007DFF002616E000200F490860022001F09E
:1007D00055FB01200D49C1F898016006040E0A4836
:1007E0007C38006808B1601CC4B2012001F046FBEF
:1007F000701CC6B2082EE6DB15B9FFF7C1FF01E099
:10080000FFF788FF204670BD988121420080214279
:1008100070B50446FFF768FF002013490860002503
:100820001EE0E00920B101200F49091D086003E026
:1008300000200D49091D08606006040E022001F029
:100840001DFB012008490860022001F017FB002071
:100850000649C1F89801022001F010FB681CC5B2DE
:10086000082DDEDB70BD000098812142008021420E
:1008700010B5FFF739FF0120094908600949C1F89F
:100880009801042001F0FAFA0020054908600420CC
:1008900001F0F4FA00200349C1F8980110BD0000EE
:1008A0009C8121420080214210B5FFF71DFF0020EE
:1008B000084908600849C1F89C01042001F0DEFAEB
:1008C0000120044908600449C1F89C01042001F09A
:1008D000D5FA10BD988121420080214210B5002434
:1008E000FFF7ECFE01200E49086001F0C7FA012075
:1008F0000C49C1F8980101F0C1FA07E0601CC4B2CC
:10090000FA2C03DDFFF7D0FF012010BD044880382A
:1009100000680028F2D10249091F086000BFF4E70F
:100920009C8121420080214210B5FE4800780828B1
:100930005BD2DFE800F0045BDBDCF9F8F7F64FF49C
:10094000FA70F849A1F86600F748006801281BD141
:10095000084690F86A00B8B906200870B1F864003B
:100960004FF4AF7101F028FAF0494885488D02F044
:10097000E7FFEE49C8620846408DC0F1640000EB15
:100980008000E849A1F86600E7480068E54981F879
:100990006A00E74800684FF4FA71B0FBF1F201FB1E
:1009A0001200012821D1DF48B0F864008C2805DD51
:1009B000DC488089401CDB49888102E00020D9495D
:1009C0008881D84880890F280FDD0020D54988818B
:1009D00001200870002006E0D249B1F864201231ED
:1009E00021F81020401C1E28F6DBECE1CE48006800
:1009F00001281CD1CB4890F86A00C0B90620C9492B
:100A00000870B1F864004FF4AF7101F0D5F9C7492F
:100A10004885488D02F094FFC449C8620846408D5D
:100A2000C0F1640000EB8000BE49A1F86600BE483A
:100A30000068BC4981F86A00BD480068C821B0FB65
:100A4000F1F201FB120000284FD0B648B0F8640064
:100A50000F2806DAB348C089401C81B2B148C18171
:100A600020E00021AF48C181B14800684FF4FA711D
:100A7000B0FBF1F201FB1200C0EB0010800088B166
:100A8000A8488089401CA7498881084680891E287B
:100A900001DB00208881A348B0F8641082891230FD
:100AA00020F812109F48C08902281EDD00219D48B1
:100AB000C18103209B4908704FF4AF71012001F000
:100AC0007BF99A494885488D02F03AFF9749C862F8
:100AD0000846408DC0F1640000EB80009149A1F808
:100AE000660000218F48A0F862106CE16BE18D4830
:100AF000B0F86200401C81B28A48A0F86210B0F8D9
:100B0000620047F2305188420FDA01F0A5FF012858
:100B100012D100218348A0F8621006208149087094
:100B20000AE098E05DE025E007E000217D48A0F8BC
:100B3000621005207B49087045E17A480089401C15
:100B400081B27848018100894EF6602188420ADA34
:100B500001F082FF01280CD100217248018106209A
:100B60007049087005E000216E48018105206D493B
:100B7000087028E16B484089401C81B26948418176
:100B80004089B0F5FA5F05DD00216648418100200B
:100B90006449087001F060FF012805D10021614817
:100BA000418106205F490870614800684FF4167162
:100BB000B0FBF1F201FB120090B95E48007808B971
:100BC000012000E000205B4908705848408D0978FA
:100BD0004843C0F1640000EB80005249A1F8660070
:100BE000F1E05248408DC0F1640000EB80004D49B7
:100BF000A1F866004C48001D0068012804D1084691
:100C0000C07808B9072008704748001D0068C1B2C5
:100C10004448C1704848D0F80001012806D1414835
:100C200090F86A0010B900203E4908703E480068FC
:100C30003C4981F86A004048D0F81001012804D1ED
:100C40000846807908B904200870374810300068D9
:100C500034498871B7E03448001D0068012805D187
:100C60003048C07810B906202E4908702E48001D63
:100C70000068C1B22B48C1702D4800680F21B0FB3D
:100C8000F1F201FB120028B928480078012801D1AF
:100C900000F000F92548C088FA2814DB2148808834
:100CA0004FF6FF71884205DA1E488088401C81B2E9
:100CB0001C4881801B488088B0F52F7F06DB06200A
:100CC0001849087002E0002116488180164810304B
:100CD000006801280FD10021124881801348C08E7E
:100CE0004FF6FF71884209DA1048C08E401C81B26D
:100CF0000E48C18602E000210C48C1860A480068FF
:100D000001281BD10021074881800848808E4FF6BA
:100D1000FF71884215DA0548808E401C0349888699
:100D20000FE0000044010020000121420C010020DE
:100D3000400000204E0000200000214200203D49DC
:100D400088863C48C08EC82817DD3B4800680C21C7
:100D5000B0FBF1F201FB120078B93648408D012852
:100D60000BDB3448408D401E81B23248418501463C
:100D7000488D02F0E5FD2F49C8622E48808EC828B4
:100D800017DD2D4800680C21B0FBF1F201FB1200C9
:100D900078B92848408D63280BDC2648408D401CDC
:100DA00081B2244841850146488D02F0C9FD2149A0
:100DB000C8622048408DC0F1640000EB80001F49EC
:100DC000A1F8660000BF00BF1C480078072802D0C9
:100DD00000211A48818019480078052802D0002196
:100DE000164841811548B0F868001449B1F86610FA
:100DF000884208DD1148B0F86800401E81B20F48F3
:100E0000A0F868100FE00D48B0F868000B49B1F881
:100E10006610884207DA0948B0F86800401C81B2C1
:100E20000648A0F868100548B0F868000449088032
:100E300010BD00000C0100204000002044010020F3
:100E40003404004008B50121102000F0F7F801211A
:100E5000084600F0F3F801210B48FFF74FFB4FF471
:100E60000050ADF8000010208DF8030003208DF82D
:100E7000020069460548FFF7B5FA4FF400510348F0
:100E8000FFF784FB08BD00000002300000100140A5
:100E90007047000070B52C49C888FFF751FA2A48FE
:100EA000807B002832D12848C088FA282EDA2649CB
:100EB000B1F90C0002F02CFD05464FF0814102F023
:100EC00045FC04462048C16A204602F0D1FB1E4979
:100ED000C862C86A1D4902F047FE01D21B4801E002
:100EE0001948C06A1849C862C86A002102F03CFD6E
:100EF00001D2002001E01448C06A1349C862C86AE0
:100F000002F0E6FC81B21048418505E00E49488DAB
:100F100002F016FD0C49C8620B4890F82A1090F8B0
:100F2000282014308154143890F82800401CC1B295
:100F3000054880F8281090F82800142803DB0021C9
:100F4000014880F8281070BD0C0100200000C84244
:100F500010B54021104800F0D1FD01281BD10F48E9
:100F60000078012817D15A200C494870A5210B4858
:100F700041718279401C815C074800F08CFE074873
:100F80008079401C0549887108468079042802DD73
:100F900000200870887110BD003801402400002036
:100FA00000BFFEE77047000070B5002100230F224C
:100FB000C47804B3154C246804F4E064C4F5E06418
:100FC000210AC1F10403CA40447804FA03F1847889
:100FD0001440214309010E4C0678A155047804F011
:100FE0001F050124AC4005786D11AD0005F1E02529
:100FF000C5F8004109E0047804F01F050124AC4065
:10100000044D0678761145F8264070BD0CED00E0E1
:1010100000E400E080E100E07047000029B1064AEA
:10102000D2690243044BDA6104E0034AD269824385
:10103000014BDA61704700000010024029B1064AF6
:1010400092690243044B9A6104E0034A9269824325
:10105000014B9A61704700000010024030B500213A
:101060000022002400232D4D6D6805F00C0121B1F4
:10107000042905D0082923D105E0294D056022E087
:10108000274D05601FE0254D6D6805F47012234D56
:101090006D6805F48034022505EB92421CB9214DA0
:1010A000554305600BE01D4D6D6805F400351DB11D
:1010B0001C4D5543056002E0194D5543056002E0A3
:1010C000174D056000BF00BF144D6D6805F0F001BD
:1010D0000909154D6B5C0568DD4045600F4D6D6875
:1010E00005F4E061090A104D6B5C4568DD408560E0
:1010F0000A4D6D6805F46051C90A0B4D6B5C45687B
:10110000DD40C560054D6D6805F44041890B074D14
:101110006B5CC568B5FBF3F5056130BD001002409E
:1011200000127A0000093D005600002066000020F1
:1011300070B506460C461546FFF79AFB7220FFF77E
:1011400067FBFFF7CBFB3046FFF762FBFFF7C6FB01
:10115000FFF78EFB7320FFF75BFBFFF7BFFB012060
:10116000FFF72AFB20800120FFF726FB218801EBF7
:10117000002020800120FFF71FFB28800120FFF7BF
:101180001BFB298801EB00202880FFF78DFB70BD39
:10119000704710B500F002F810BD00000CB500203B
:1011A000019000903348006840F480303149086075
:1011B00000BF3048006800F4003000900198401CE7
:1011C0000190009818B90198B0F5A06FF1D12948A5
:1011D000006800F4003010B10120009001E0002010
:1011E00000900098012843D12348006840F0100087
:1011F000214908600846006820F00300086008469E
:10120000006840F0020008601A48406819494860C8
:101210000846406848600846406840F4806048607E
:101220000846406820F47C1048600846406840F456
:10123000E81048600846006840F08070086000BF11
:101240000C48006800F000700028F9D00948406898
:1012500020F00300074948600846406840F002005B
:10126000486000BF0348406800F00C000828F9D12E
:101270000CBD000000100240002002401CB50022FE
:10128000009201920020002100BF0CE000222DF806
:1012900010201F4A135C521D02EB00121C4C2479D3
:1012A0001355421CD0B20428F0DB002012E00021CC
:1012B0000CE03DF81030164A521D02EB0012525C51
:1012C0001A4492B22DF810204A1CD1B21029F0DB3A
:1012D000421CD0B20428EADB00200BE03DF81020CD
:1012E000082A01DD012300E00023094A4532135496
:1012F000421CD0B20428F1DB054A12790F2A03DA26
:10130000034A1279521C00E00022014B1A711CBDE5
:10131000780000207047042808D14FF0E0210969C7
:1013200041F004014FF0E022116107E04FF0E021AD
:10133000096921F004014FF0E02211617047704704
:1013400010B51348006840F00100114908600846D4
:101350004068104908400E494860084600680E4938
:1013600008400B4908600846006820F480200860A7
:101370000846406820F4FE0048604FF41F00886073
:10138000FFF707FF4FF000600449086010BD000040
:10139000001002400000FFF8FFFFF6FE08ED00E03D
:1013A0007FB505460C460121C802FFF747FEADF8A0
:1013B0000850ADF804400020ADF80A00ADF8060072
:1013C0008DF80C0001A90D4800F06AF901221146C0
:1013D0000A4800F0A5F819208DF8000000208DF8CB
:1013E00001008DF8020001208DF803006846FFF728
:1013F000DBFD0121014800F076F87FBD002C0140A3
:1014000010B50121094800F07AF870B101210748B0
:1014100000F066F806480068401C05490860FFF7C0
:1014200037FDFEF717FFFFF77FFA10BD002C0140D4
:101430004000002030B589B005460C46012102204D
:10144000FFF7ECFD01210D20FFF7F8FD4020ADF87E
:10145000200018208DF8230003208DF8220008A911
:101460001D48FEF7BFFF8020ADF8200018208DF842
:10147000230003208DF8220008A91748FEF7B2FFC9
:10148000ADF81850ADF814400020ADF81A00ADF8D2
:10149000160005A9114800F003F97020ADF804000A
:1014A0000120ADF806000020ADF80C0001A90B48A2
:1014B00000F040F801A9094800F092F80821074817
:1014C00000F084F80821054800F0DCF80121034809
:1014D00000F009F809B030BD0008014000040040E8
:1014E000CA430282704721B1028842F001020280A1
:1014F00004E002884FF6FE731A400280704730B550
:101500000246002000230024158A05EA010395897C
:1015100005EA010413B10CB1012000E0002030BD48
:101520001AB183890B43838102E083898B438381D2
:101530007047000070B5002400220023058C4FF690
:10154000FE7635400584028C8388048B4FF68F75B8
:101550002C40B51E2C400D882C43751E2A400D8949
:101560002A434D882A43144DA8420BD0134DA8425C
:1015700008D0134DA84205D0124DA84202D0124DFA
:10158000A84213D14FF6F7752A404D892A434FF6EA
:10159000FB752A408D882A434FF6FF652B404FF696
:1015A000FF552B408D892B43CD892B4383800483AA
:1015B000CD888586028470BD002C01400034014036
:1015C0000040014000440140004801400A4600211B
:1015D000018B4FF6F77319401143018370470000E8
:1015E00070B5002400220023058C4FF6EF763540BD
:1015F0000584028C8388048B48F6FF752C404FF6D7
:10160000FF452C400D884FF6FF7606EA05252C4352
:101610004FF6DF752A400D8906EA05152A434D88E5
:1016200006EA05152A43154DA84202D0144DA842DA
:101630001DD14FF67F752A404D894FF6FF7606EA99
:1016400005152A434FF6BF752A408D8806EA051511
:101650002A434FF6FF352B404FF2FF752B408D8903
:1016600006EA85052B43CD8906EA85052B43838051
:101670000483CD880587028470BD0000002C0140E2
:10168000003401400A460021018B4FF2FF731940DC
:101690004FF6FF7303EA02231943018370470000EA
:1016A000002202881D4B98420ED01D4B98420BD051
:1016B000B0F1804F08D01B4B984205D01A4B98428E
:1016C00002D01A4B984204D14FF68F731A404B88C0
:1016D0001A43174B984207D0164B984204D04FF646
:1016E000FF431A40CB881A4302808B8883850B887E
:1016F00003850A4B98420BD0094B984208D00E4BF9
:10170000984205D00D4B984202D00D4B984201D122
:101710000B7A03860123838270470000002C01406E
:10172000003401400004004000080040000C00406C
:1017300000100040001400400040014000440140FF
:10174000004801402DE9F04F89B083468A4658464B
:1017500002F0F6F80446504602F0F2F8054621463B
:1017600001F0F4FF0790002006905049079802F01E
:10177000FBF832D8069801F0EFFB80464FF0C042EC
:101780004B4B00F017FC06460F46584602F0D8F8BF
:101790008146484902F01CF9804601F03DFF32467F
:1017A0003B46CDE9000101F027FCCDE90401584694
:1017B00002F0C6F80746404902F00AF9064601F071
:1017C0002BFFCDE90201DDE9042301F03BFE0446D5
:1017D00001F07EFB80B2069065E03849079802F080
:1017E000C3F818D8504602F0ABF80746344902F067
:1017F000EFF80546584602F0A3F80746314902F0D3
:10180000E7F80646294602F0E1F9044602F060F8DE
:1018100080B2069047E02C49079802F0A5F818D846
:10182000504602F08DF80746284902F0D1F80546E7
:10183000584602F085F80746254902F0C9F80646E1
:10184000294602F0C3F9044602F042F880B206903D
:1018500029E02049079802F087F818D8504602F08E
:101860006FF807461C4902F0B3F80546584602F0E7
:1018700067F80746194902F0ABF80646294602F018
:10188000A5F9044602F024F880B206900BE0114955
:10189000079802F069F902D20020069003E00020C8
:1018A00009B0BDE8F08F0698FAE70000B81E053FC2
:1018B0006666F63F8FE4723D2506013D6666263F6B
:1018C0002063EE3CC898BB3CCDCC4C3FBC74933CF1
:1018D000499D803C6666A63FC3642A3BFD825D3B12
:1018E00010B5044600F004F8204600F007F810BDDB
:1018F00010B50321802000F017F810BD10B5044684
:10190000FEF7B6FF7220FEF783FFFEF7E7FF8120A8
:10191000FEF77EFFFEF7E2FF2046FEF779FFFEF7B7
:10192000DDFFFEF7C1FF10BD70B505460C46FEF7A2
:101930009FFF7220FEF76CFFFEF7D0FF2846FEF7F0
:1019400067FFFEF7CBFF2046FEF762FFFEF7C6FFFC
:10195000FEF7AAFF70BD000008B501210420FFF7C3
:101960006DFB1320ADF8000048208DF80300032024
:101970008DF8020069460448FEF734FD1321024841
:10198000FEF704FE08BD00000008014010B540F25B
:1019900025510B4800F0BFF888B12021084800F01D
:1019A00089F840F22551064800F08DF8044800F00F
:1019B0006DF90449087008460078FEF787FC10BDF1
:1019C000003801407600002010B540F225510F4844
:1019D00000F0A1F8C8B120210C4800F06BF840F2EB
:1019E00025510A4800F06FF8084800F04FF90849FF
:1019F000087008460078FEF7CBFD0448001D0088FB
:101A00000349087001480088087010BD0044004078
:101A10004800002010B586B0044601212248FFF797
:101A2000FDFA0420ADF8140003208DF816001820EC
:101A30008DF8170005A91D48FEF7D4FC0820ADF865
:101A4000140004208DF8170005A91848FEF7CAFCF9
:101A500026208DF8000003208DF801008DF802008B
:101A600001208DF803006846FFF79EFA01940020DC
:101A7000ADF80800ADF80A00ADF80C00ADF81000A4
:101A80000C20ADF80E0001A9094800F093F80122DE
:101A900040F22551064800F068F80121044800F0A2
:101AA00021F806B010BD000004000200000801404B
:101AB0000044004001F40072B2F5007F00D100BF85
:101AC000CA430280704710B50022002340F66A1412
:101AD000A14200D100BF0A1201249440A3B2DC430A
:101AE000048010BD21B1828942F40052828104E059
:101AF00082894DF6FF731A408281704702460020AA
:101B0000B1F5007F00D100BF13880B400BB101205D
:101B100000E00020704770B5024600240023002535
:101B2000002040F66A16B14200D100BFC1F3421551
:101B300001F01F03012606FA03F3012D02D1968955
:101B4000334006E0022D02D1168A334001E0968A26
:101B500033400C12012606FA04F41688344013B1FF
:101B60000CB1012000E0002070BDF0B50346002458
:101B700000260025002040F66A17B94200D100BFB8
:101B80001846C1F3421401F01F06012707FA06F5B3
:101B9000012C01D10C3004E0022C01D1103000E006
:101BA00014301AB107682F43076002E00768AF439B
:101BB0000760F0BD2DE9F04786B005460E460024CB
:101BC000A24600BFA1460027B08900B100BF2F4642
:101BD0002C8A4CF6FF700440F08804432C82AC89B8
:101BE0004EF6F3100440B0883189084371890843E8
:101BF0000443AC81AC8A4FF6FF400440B0890443F3
:101C0000AC8201A8FFF72AFA1F48874202D1DDF80B
:101C100010A001E0DDF80CA0A88900F4004040B15C
:101C20000AEBCA0000EB0A1031684900B0FBF1F87A
:101C300007E00AEBCA0000EB0A1031688900B0FB2C
:101C4000F1F86420B8FBF0F004012009642101FBE5
:101C50001089A88900F4004040B1322000EBC9008F
:101C6000B0FBF1F000F00700044308E0322000EB85
:101C700009106421B0FBF1F000F00F0004432C8147
:101C800006B0BDE8F08700000038014001468888B2
:101C9000C0F308007047C1F308028280704700BF9C
:101CA000FEE7490050EAC12018BF04204A0D18BFC2
:101CB00040F0010040F2FF72B2EB515F08BF40F00C
:101CC0000200012808BF052070472DE9F0414F1E92
:101CD00000EBC7010446D1E9000115461E4637F066
:101CE00006020DD02A46334601F086F97F1E04EB2A
:101CF000C703D3E9002300F0D7FE37F00602F1D185
:101D0000022F25D0042F13D0062F18BFBDE8F08175
:101D10002A46334601F070F9D4E90A2300F0C4FEE4
:101D20002A46334601F068F9D4E9082300F0BCFEE6
:101D30002A46334601F060F9D4E9062300F0B4FEE8
:101D40002A46334601F058F9D4E9042300F0ACFEEA
:101D50002A46334601F050F9D4E9022300F0A4FEEC
:101D60002A46334601F048F9D4E90023BDE8F041A2
:101D700000F09ABE002213461046014900F050BF01
:101D80000000F03F00F090BE0022134610461146BE
:101D900000F046BF40F2013200204FF0E04101F078
:101DA000BCBF0000024A0020110701F0B6BF0000CE
:101DB00001FDFFFF00BF704710B502461E20D31D76
:101DC000994205DB8B1A062493FBF4F398B200E0EA
:101DD0001E20642801DD642300E003461846002825
:101DE00001DA002300E00346184610BD10B56FF07D
:101DF0000400FFF790FA0A4800680A49B0FBF1F0C6
:101E0000094908700846007800EB4001C1EBC0109A
:101E10004FF6FF7101EAC0000449088010BD0000C0
:101E20001000002000127A006A0000206C000020E0
:101E30000146114A12884A434FF0E0235A610022BA
:101E40009A611A46126942F001021A6100BF4FF00E
:101E5000E022106900F001021AB100F48032002A79
:101E6000F5D04FF0E022126922F001024FF0E0239A
:101E70001A6100229A6170476C0000200146114AE5
:101E800012784A434FF0E0235A6100229A611A46C1
:101E9000126942F001021A6100BF4FF0E02210699E
:101EA00000F001021AB100F48032002AF5D04FF0A0
:101EB000E022126922F001024FF0E0231A610022B1
:101EC0009A6170476A00002000202F4908700121A4
:101ED0002D48C1700C212D480182FFF787FFC820D3
:101EE000FFF7A6FF4FF4615000F066FDFEF7AAFF72
:101EF000FFF732FD472140F2F310FFF79BFA40F263
:101F0000CF21C720FFF74CFAFEF720FCC820FFF7CF
:101F10008FFF1220FFF7E4FC4FF4E130FFF77AFD6A
:101F200031E01B4890F90000002803DD184890F9C3
:101F3000000003E0164890F90000404240B2154905
:101F40000870154800781549097808441449087044
:101F5000144A15498C20FFF7EBF812480188124803
:101F60000088FFF7EFFB0849A1F8640001200F4942
:101F70000860C820FFF75CFF00200D49C1F8B401DC
:101F8000CA20FFF755FFCCE7440100200C010020D8
:101F900003000020040000200000002001000020B9
:101FA000020000200C0000200A000020B4012242A0
:101FB000000022422DE9F04D16460F4694B01C4613
:101FC00021F0004123F00042002814BF4FF0010C23
:101FD0004FF0000C0CEB470CFE4B0CEB03054FEAEB
:101FE000630C65452BD3350018BF012505EB44056F
:101FF0001D44F94B9D4222D3F84B52EA060C02D005
:102000009F4205D148B914B000201946BDE8F08DB3
:10201000002808BF4FF0000C01D04FF0010C0CEB72
:10202000470313F5001F0AD8002E14BF4FF0010C10
:102030004FF0000C0CEB440313F5001F07D914B04C
:10204000324623463946BDE8F04DFFF79BBEDFF828
:1020500090834FF0000A002FB8BF424523DAE14BCE
:102060009A42A8BF4FF0020A1DDADC4B93421ADCF9
:10207000DD4B03EB2253142B08DDC3F1340C26FA9D
:102080000CF303FA0CFCB4450DD108E05EB9C3F1C2
:10209000140C22FA0CF303FA0CFC944503D103F060
:1020A0000103C3F1020A51EA00031BD1002C19DA23
:1020B000002F18BFBAF1020F02D0BAF1010F07D0FA
:1020C0000220FEF78BF814B0BDE8F04DFFF752BECA
:1020D0000220FEF783F8FFF74DFE14B081F00041B7
:1020E000BDE8F08D330070D1424525D107F1804223
:1020F00012F5801201BF00280020B84914B008BFB3
:10210000BDE8F08DB548884207DC002CA1BF184619
:10211000214614B0BDE8F08D07E0002CBFBF184683
:1021200084F0004114B0BDE8F08DB0497944D1E9A4
:10213000000114B0BDE8F08DDFF8A0C262452AD1DD
:10214000002C24DA39B1414517D1002804BF002002
:1021500002461CD106E040B10220FEF73FF8FFF72F
:1021600019FE0A46394600F0D7BA9D4A394614B0DE
:10217000002062F31E01BDE8F08D08DA14B03B4682
:10218000BDE8F04D02460020614600F049BD14B0A4
:102190003946BDE8F08D414517DAB4F1804F0CD0D7
:1021A000A4F10053B3F1FF530FD13B1E0DDB14B06C
:1021B0001946BDE8F04D00F0D9BB3B4614B00246CD
:1021C000BDE8F04D194600F017BF050027F00043A9
:1021D0003AD1E1B1414537D1002F06DD002CA1BF36
:1021E0000020414614B0BDE8F08D002F01DD002C29
:1021F0001FDB002F16DA002C14DBBAF1010F4FF0B1
:10220000000014BF76497A4914B0BDE8F08DBAF1E8
:10221000020F18BF002F0CD0BAF1010F09D1002F07
:1022200007DA0BE0002FB8BF002C0DDABAF1010F6E
:1022300004D0002014B00146BDE8F08D14B0002099
:102240004FF00041BDE8F08D4FF0010808EBE77C4E
:10225000CDF814C05CEA0A0C0DD0DFF898C16245D5
:102260007EDDDFF894C1654B624512DD8B420ADBEF
:10227000002C18DB23E00120FDF7B0FF14B0BDE80F
:10228000F04DFFF781BD554A8A4202DC002C0ADC82
:1022900015E0994202DA002C11DA04E04F4B994222
:1022A00019DD002C0BDD0220FDF798FFFFF772FD12
:1022B0004B4A14B061F31E021146BDE8F08D0220B6
:1022C000FDF78CFFFFF76EFD444A14B061F31E0268
:1022D0001146BDE8F08D0022394601F0B3F80746FB
:1022E0000D466FF0010201F018FD4FF05532444BDE
:1022F00000F0B6FF3A462B4600F07EFE0022414B2E
:1023000000F0AEFF80468B463A462B4610461946F3
:1023100000F072FE42465B4600F06EFE88460E906C
:102320004FF0C042384B3846294600F065FE8346E0
:102330000091364A344B41460E9800F05DFE8046CF
:102340000191334A334B3846294600F055FE424648
:10235000019B01F077F80D4602460B460C9000E019
:1023600011E05846009900F09FFB002788465A4626
:102370003846009B01F066F82B460C9A00F070FF7F
:10238000024600F079B90020B1F5801F07DA352246
:102390002846194601F0C1FC05466FF0340000EBF9
:1023A0002150A0F2FF300190C1F3130040F07F6193
:1023B00041F04051029118498842D8BF4FF0000BBC
:1023C00035DD16498142C8BF4FF0010B2FDC4FF0BD
:1023D000000B25E0FFFF1F00FFFF0F000000F03F94
:1023E0000000F07F0000404301FCFFFF001D0000E3
:1023F0000000F0FF0000E0410000F043FFFFEF3F6E
:102400005555D53F0000E03F4715F73FFE822B654D
:1024100044DF5DF80BAE543E8E9803007AB60B0095
:102420000198401C01900298A0F580100290FF488E
:102430000299784400EBCB000991D0E900232846AB
:102440000B93129200F0FEFF00910A9028460B9B1E
:10245000129A099900F028FB02460B460020F44925
:1024600000F0DEFBCDE90C010B46024600990A980C
:1024700000F0C2FD0690EF48884600277844029994
:10248000006810904FF0005040EA610000EB8B4074
:1024900000F5002102910B9B129A109800F0D2FFD8
:1024A0002A46099B00F0DCFE3A46434600F0A4FDB4
:1024B0000891129038464146029B109A00F09CFD0C
:1024C000009B0A9A00F0CCFE089B129A00F0BAFF1B
:1024D000DDE90C2300F090FD0B91069A1290434623
:1024E0001046194600F088FD05460246D2480B46C4
:1024F0000A9106217844FFF7E8FB0A9B2A460891D7
:1025000002901046194600F077FD089B029A00F0F1
:1025100073FD05460991434638461946069A00F070
:10252000C3FA0B9B129A00F067FD2A46099B00F044
:10253000BBFACDE908013A4643461046194600F079
:102540005BFD0A910022BD4B009000F0ADFADDE981
:10255000082300F0A9FA0D463A46B84B384600F079
:1025600071FF0A9B009A00F06DFFDDE9082300F07F
:1025700077FECDE908013A462B461046414600F069
:102580003BFD00910A90DDE908014346069A00F000
:1025900033FD069088462B463A460B99129800F078
:1025A0002BFD4346069A00F07FFA80460B46024612
:1025B0000D9100990A9800F077FA00200F46054621
:1025C000009B0A9A00F03EFF42460D9B00F048FE39
:1025D00088460E904FF06042994B2846394600F0ED
:1025E0000BFD02910090974A954B41460E9800F0E2
:1025F00003FD80460391944A944B2846394600F0E7
:10260000FBFC4246039B00F04FFA914A7A4402EBEE
:10261000CB03D3E9002300F047FA05460791019860
:1026200000F083FC0C9003912A46079B02990098C6
:1026300000F03AFA874A7A4402EBCB03D3E900234D
:102640009346019300F030FA039B0C9A00F02CFAA9
:10265000002788463846039B0C9A00F0F3FE5A4642
:10266000019B00F0EFFE029B009A00F0EBFE2A4671
:10267000079B00F0F5FD02460020069005986C4D82
:10268000AAF10103184301D1734D069000200B46B7
:1026900004903046214600F0AFFC82468B4623462C
:1026A00030461946049A00F0CDFE3A46434600F003
:1026B000A3FC52465B4600F0F7F906468A463A46C6
:1026C00043462146049800F097FC04460F463246E4
:1026D000534600F0E9F9614A8B46914221DBABEBAE
:1026E000020353EA000210D122463B4600F0AAFE44
:1026F000804603915A4A5B4B3046514600F0D4F96C
:102700004246039B00F076FD27D20220FDF766FDCE
:10271000FFF740FB0A46294614B062F31E01BDE8EC
:10272000F08D514B2BF000429A4216D34F4A0BEBDF
:10273000020353EA000208D122463B4600F082FE23
:102740003246534600F056FD07D80220FDF746FDFD
:10275000FFF728FB0A462946DEE72BF000404449F4
:10276000444A01EB20514FF00008824223DA481C12
:102770004FF4801121FA00F058443F4AC0F30A5147
:102780007A443E4BA1F2FF31CB4020EA0303C0F371
:10279000130040F4801CC1F1140012682CFA00F8F8
:1027A000BBF1000FB8BFC8F100082046394600F061
:1027B00049FE04460F4622463B463046514600F04D
:1027C00073F94FF0000B5A462D4B5846039100F019
:1027D00013FC00910A902B4A2B4B5846039900F0AA
:1027E0000BFC0491029022463B465846039900F0A8
:1027F00029FE3246534600F033FD244A244B00F0B4
:10280000FBFB049B029A00F04FF907468A46009BA7
:102810000A9A00F049F904460E46009B0A9A00F015
:1028200011FE3A46534600F01BFD33E072190000DA
:102830000000F03FB0190000E01800000000084060
:1028400009C7EE3FFD033ADCF5015B14E02F3EBE05
:10285000B81700007E1700000000F0BF0000904095
:10286000FE822B654715973C00CC904000346F3FAB
:1028700001FCFFFF0000E03FAC160000FFFF0F006F
:10288000432EE63F396CA80C615C20BEEF39FAFE9E
:10289000422EE63F0746224633460F911046194620
:1028A00000F0AAFB834602462E488A460B460521C5
:1028B0007844FFF70AFA5A46534600F09DFB224639
:1028C000334600F0CDFC82468B463A4620463146E0
:1028D0000F9B00F091FB3A460F9B00F0E5F80F4686
:1028E0000A9000224FF080435046594600F0AAFD5E
:1028F0000391009052465B462046314600F07CFB37
:10290000039B009A00F08CF93B460A9A00F09AFD6E
:102910002246334600F096FD0022134B00F0A0FC47
:102920000E46044601EB08510815002810DC42460B
:102930002046314601F0F1F9FFF7B3F9042808BF4A
:10294000FFF730FA42462046314601F0E6F90446E8
:1029500006980B4614B022462946BDE8F04D00F01B
:102960004BBB0000541500000000F03F2DE9F04182
:1029700006460F4600F080FC04000D4618BF0120FB
:10298000284320F00040C0F17F6000F1E040C00F1C
:102990000ED0301C18BF0120384320F00040C0F199
:1029A0007F6000F1E040C00F04BF0120FDF716FC7E
:1029B00020462946BDE8F08110B586B004460121C5
:1029C00044F20400FEF73AFB4FF40070ADF8140037
:1029D00003208DF8160018208DF8170005A91C4853
:1029E000FDF700FD4FF48060ADF8140004208DF871
:1029F000170005A91648FDF7F5FC25208DF8000005
:102A000003208DF801008DF8020001208DF80300ED
:102A10006846FEF7C9FA01940020ADF80800ADF849
:102A20000A00ADF80C00ADF810000C20ADF80E0057
:102A300001A90848FFF7BEF8012240F225510548D8
:102A4000FFF793F801210348FFF74CF806B010BDDB
:102A500000080140003801400F4800680F4909682C
:102A6000401AC82802D900200D4908800D48C088A6
:102A7000C82804DA0A480088401C0949088006482A
:102A800000680649086006480088FA2801DD012030
:102A900070470020FCE700004000002050000020AC
:102AA000540000200C01002010B591EA030F48BF2C
:102AB00083F0004300F1CE84841A71EB030C05D23D
:102AC000121943EB0C03001B61EB0C01DFF824E14E
:102AD0004FEA1154A4EB135C1EEA430F18BF9EEAA1
:102AE000445F73D023EA0E03DCF1200E21EA045187
:102AF00043F4801332D322FA0CFE10EB0E0023FABB
:102B00000CFE41EB0E01CCF1200E03FA0EFE10EB91
:102B10000E0051F10001B1F5801FCCF1200E32D230
:102B200001EB045112FA0EF2BDE8104058BF704795
:102B3000401C38BF5FEA420218BF7047002814BF2C
:102B400020F0010041F100014FEA410313F5001F9D
:102B500038BF7047A1F1C04100F046BB012A43EBEA
:102B60000302ACF1200CDCF11F0E32BF4FF0000E5F
:102B700023FA0CF310EB030041EB0451B4EB115FAB
:102B8000D0D0A1EB045101F5801149085FEA300073
:102B900001EB04510ED350F1000038BF12FA0EFEC3
:102BA00008D1BDE81040C9E7401C38BF5FEA4202C7
:102BB000CAD1C3E7BDE810404FEA410313F5001F37
:102BC00038BF7047A1F1C04100F00EBB9EEA445FE0
:102BD00008D011EA5E0FBDE8104004BF01F00041CB
:102BE00000207047BDE8104070B500F0AFFA00BF9C
:102BF00064FBBE3E0000E0FF02494FF0000001F020
:102C00005AB800BF0000F87F491058BFC1F14041D9
:102C10005B1058BFC3F140438B42EFF30080704715
:102C20002DE9C04130B4DFF8A0C23CEA111418BF4E
:102C30003CEA131400F0EC8081EA03051CEA11144D
:102C400044EAD57418BF1CEA131500F0C780A4EB42
:102C500005044FF0004545EAC12145EAC32341EA96
:102C6000505143EA525304F17F74994204F5003401
:102C70004FEAC0204FEAC22208BF904200F09C8079
:102C80004FEA13650FF24016765D4FEA134506FBD7
:102C900005F7C7F1807706FB07F74FEAD737A7FBA1
:102CA00003687642C8F58038A7FB06CE38BFA8F186
:102CB000010807FB08E64FF0000EA6FB028CE6FBBE
:102CC00003CEDCF1000CCEF1004E38BFAEF1010EA8
:102CD000A6FB0C584FF000074FF00005E6FB0E87EF
:102CE000A1FB08C6A0FB07CE16EB0E0645F10005BA
:102CF000E1FB076515F1E04E7EBFA4F580345FEA85
:102D000046066D4116F1800745F100054FEA172789
:102D10004FEA066647EA0567A6F1DE46B6F1805F30
:102D20004FEA15251FD9384624F0010C05EBC47174
:102D3000BCF1FE6F01EB0C1102D8F0BCBDE80081C4
:102D400024425CBF01F5801E9EEAC47F02D4F0BC21
:102D5000BDE80081244238D4F0BCA1F1C041BDE8F7
:102D6000004100F041BA4FEAD22242EA43524FEA10
:102D7000D323A7FB02864FEAD02040EA415007FB4D
:102D800003661EEA0E0F4FEAD12105FB026658BF0B
:102D9000A6EB0056B6EB00564FEA520E4EEAC37E43
:102DA00018EB0E0E56EB530EBDD518EB02085E4124
:102DB0007F1C55F10005B6E74FF480154FF0000772
:102DC0004FF000064FF00008ADE7F0BC4FF00000F8
:102DD00001F1C04101F00041BDE8008111EA0C1F82
:102DE0000CEA131500D00CE013EA0C1F00F025804C
:102DF0004FF00000F0BC81EA030101F00041BDE8A2
:102E00000081F0BCBDE8004181EA030100F0ECB9AB
:102E1000F0BCBDE8004170B500F098F9097EFC3EB9
:102E200000F007B881EA03014FF0000001F0004113
:102E3000704781EA030100F0D7B9F0BCBDE800415A
:102E40004FF0000021497047FFFDFBF9F7F5F4F260
:102E5000F0EEEDEBE9E8E6E4E3E1E0DEDDDBDAD835
:102E6000D7D5D4D3D1D0CFCDCCCBCAC8C7C6C5C493
:102E7000C2C1C0BFBEBDBCBBBAB9B8B7B6B5B4B3AA
:102E8000B2B1B0AFAEADACABAAA9A8A8A7A6A5A495
:102E9000A3A3A2A1A09F9F9E9D9C9C9B9A99999859
:102EA0009797969595949393929191908F8F8E8EFC
:102EB0008D8C8C8B8B8A8989888887878685858489
:102EC00084838382828181800000FF070000F87F75
:102ED0004FEA1153A3F58063D3F11E03A8BFD3F1CA
:102EE000200C08DB4FF0004242EAC12252EA505265
:102EF00032FA03F0704709420BD4102BC4BF0020F4
:102F0000704703F5787CBCF1FF3F05D04FF0FF30F0
:102F100070474FF00000704770B500F017F900BF20
:102F20004992248000207047F0E710F0004248BF2B
:102F30004042B0FA80F310FA03F10AD0C3F11D0346
:102F400003F580634FEA415002EB035202EBD121BB
:102F500070474FF000007047B0FA80F310FA03F1A9
:102F60000AD0C3F11D0303F580634FEA41504FEAD5
:102F7000035202EBD12170474FF000007047000070
:102F800051EA030C17D41CF5801F58BFBCF5801FF5
:102F900000F10680994218BF704708BF9042704701
:102FA00007D711F5801F58BF13F5801F19D4994218
:102FB0007047894270471CF5801F08D5BCF5801FFB
:102FC000F7D58B4218BF704708BF824270474FF455
:102FD000001C1CEB410F38BF1CEB430F01D28B428E
:102FE000704770B500F0B2F8922449004FF00051DC
:102FF0004FF08053FFF708BEDFF848C170B51CEAF8
:10300000111E1EBF1CEA13159EEA0C0F95EA0C0F49
:1030100000F06F8081EA030423EA4C134EEAD47E69
:1030200021EA4C1141F4801143F48013AE44A1FB1A
:10303000024CA0FB0365AEF17F7E361955EB0C0503
:10304000A1FB034C4CF10003A0FB021C16EB0C0689
:10305000654153F10003094218BF46F0010613F41D
:10306000007F0BD14FEA03314FEA0530340341EAC8
:10307000155140EA16506FF003020AE04FEAC321EF
:103080004FEAC520F40241EA555140EA56506FF02C
:10309000020202EB2E4201EB025585EACE710AD004
:1030A0005FEA440C18BF24F0004450F1000041F1E5
:1030B000000120EAD47040F2FE7C624500D270BD6F
:1030C000A84214BF4FF080444FF04044002E08BF88
:1030D0000024BEF1806FA8BFA1F1C041BDE87040DF
:1030E00080F282804FF0000001F1C04101F0004108
:1030F00070479EEA0C0F0CEA131518BF95EA0C0FE7
:1031000006D04FF0000081EA030E0EF0004170BDC2
:1031100000F01CF88900013E00F007B800F009B883
:103120004FEA430C5FEA5C5C08D081EA030100F0DF
:103130005BB84FEA410C5FEA5C5CF6D14FF00000EF
:10314000014970470000FF070000F87F0EF1020EF2
:103150002EF0030E5EF8046B364205D4012A43EBD1
:10316000030515F5001F12D8012841EB010C1CF5D1
:10317000001F0CD80ED14FEAD17C15F5001F0CEBC7
:103180004C0C0CF1020C08BF4CEBD37C04E04FF06C
:10319000080C01E04FEAD37C0CEB4C0526FA05F64F
:1031A00006F00706B6F1040C06D20EEB860CBDE85D
:1031B00070404CF0010C6047DFE80CF0090B020294
:1031C0004FF000414FF00000A1F5002170BD1946FD
:1031D0001046012851EB010418BFD4F5001484BF38
:1031E000002001F0004170BD0808A0F500114FEA71
:1031F0003101704753EA010C17D41CF5801F58BFEA
:10320000BCF5801F00F106808B4218BF704708BFD5
:103210008242704707D713F5801F58BF11F5801FF2
:1032200019D48B4270479B4270471CF5801F08D50C
:10323000BCF5801FF7D5994218BF704708BF904270
:1032400070474FF4001C1CEB430F38BF1CEB410FC1
:1032500001D2994270470FB40CBC03BCFFF7C1BE4A
:1032600091EA030F10B581F000413FF525AC83F0E2
:10327000004300F0EFB800002DE9F04101F5801C9B
:10328000BCF5001FC0F2C3804FEA115C21EA0C516B
:103290000CF1FD0C41F480115FEA5C0C0CF5C07C74
:1032A00001D3400049413DA4890241EA905187027F
:1032B0008E0E0A0CA45D04FB04F602FB06F6C6F1B2
:1032C0004046A4FB0662F60D46EA422606FB06F4DB
:1032D000A4FB01235242C3F1404338BF5B1EA6FB4F
:1032E00002420024E6FB0324D20B42EA4446A6FB3A
:1032F0000623A1FB02E2A3FB07E4A4184FF000029F
:1033000052F10002E3FB01426442C2F1404E38BF79
:10331000AEF1010EA6FB04234FF00002E6FB0E32D5
:10332000A2FB03464FF00004B61954F10004E2FB7F
:103330000264A1FB06E6A4FB07E816EB08064FF0C3
:10334000000858F10008E4FB01687642C8F14058D3
:1033500038BFA8F10108A2FB06E4A3FB08E52D197C
:103360004FF0000454F10004E2FB0854A1FB05E611
:10337000A7FB04E818EB06084FF0000656F100061C
:10338000E1FB048618F1200556F10006A809A8F112
:103390001B08B10908F03F08B8F10A0F40EA86603F
:1033A0001CD901EB0C51BDE8F08100BFFCF5EEE843
:1033B000E2DDD8D3CFCBC7C3C0BDB9B6B4B1AEACD4
:1033C000A9A7A5A3A19F9D9B9A9896959392908F4C
:1033D0008D8C8B898887868584838281A0FB006899
:1033E00000FB01F208EB4208B8EB872807D5341838
:1033F00058EB0104D5D5401C51F10001D1E7341A36
:1034000078EB0104CDD4401E71F10001C9E75FEAF9
:103410004C0C5FEA9C5C0DD105D34FF0000001F02D
:103420000041BDE8F081BDE8F04170B5FFF78EFEC8
:103430006DDBFFBEBDE8F0414FF000000049704772
:103440000000F87F10B591EA030F48BF83F00043F6
:103450003FF532AB841A71EB030C07D212198CF0D2
:10346000004C43EB0C03001B61EB0C01DFF8A4E103
:103470004FEA1154A4EB135C1EEA430F18BF9EEAF7
:10348000445F00F0B08023EA6E03524221EA045107
:10349000C3EB6E0338BF5B1EDCF1200E25D322FA8E
:1034A0000CFE10EB0E0043FA0CFE41EB0E01CCF1CA
:1034B000200E03FA0EFE10EB0E0051F10001CCF1CC
:1034C000200E29D412FA0EF201EB0451BDE810408F
:1034D00058BF7047401C1CBFB2F1004F7047002816
:1034E0000CBF491C20F00100704712EB020E43EBA9
:1034F000030218BF4FF0010E4EEA4202ACF1200C5D
:10350000DCF11E0E54D943FA0CFE10EB0E0051F103
:10351000FF31CCF11E0ED5D50EF1010E12FA0EFEC2
:10352000404141EB010101EB445C5FEA5C5C10D976
:1035300010EBDE7001EB045138BFBEF1004FBDE867
:10354000104018BF704700280CBF491C20F0010034
:10355000704730D24FEAD42C11F5001124F40064E6
:103560001BD0B1FA81F20B3AA41AA41ED2F12003A7
:10357000914030FA03F31943904001EBCC71002CD9
:1035800001EB0451BDE81040A8BF704701F1C041F4
:103590004FF0000001F000417047B0FA80F310FADC
:1035A00003F100D110BDE41A173C4805C90AE4E74D
:1035B00001EB045110BD491001EB0451BDE810406E
:1035C0004FEA300002E04FF0000170474A0008BFA8
:1035D0000042F8D0B2F5001F28BF704701F000414B
:1035E0004FF0000070479EEA445F07D011EA5E0F7B
:1035F000BDE8104004BF002100207047BDE8104026
:1036000070B5FFF7A3FD00BF40DFF63E83F0004139
:10361000104670470000E0FF43004FEAD30C4FEA2A
:103620003C0C43401FBF40070CF1605113F0FE4FAC
:1036300070471CF0006F03D100200CF00041704770
:103640000CF0004343EA507010B540EACC0000F0A3
:1036500040FA00BF000000924FEA0001FFF7C4BD2E
:103660004FF000414FF00000A1F50021704700002D
:1036700090EA010F48BF81F0004100F1AE82421A8A
:103680003CBF801A89184FEAD0524FF07F4C1CEA99
:10369000410FA2EBD15318BF9CEA026F00F03B80B0
:1036A0004FF0004C4CEA00204CEA012121FA03FCC7
:1036B00010EB0C0C1ED202F1FF325FEA1C2040EB33
:1036C000C25038BF70471CF07F0F4FEA400C18BF44
:1036D000BCF17F4F38BF7047C3F12003994008BF4A
:1036E00020F00100BCF17F4F38BF7047A0F1C0400F
:1036F00000F035BA4FEA3C00000A40EBC25028BF48
:103700001CF0FF0F4FEA400CE6D018BFBCF17F4F12
:1037100038BF7047EAE79CEA026F05D010EA5C0FF9
:1037200008BF00F00040704710B500F0D2F900BFAC
:1037300064FBBE3E401058BFC0F14040491058BF26
:10374000C1F140418142EFF3008070474FF47F0C9C
:103750001CEAD0121EBF1CEAD11392EA0C0F93EAA6
:103760000C0F00F0858090EA010F48BF42F4807290
:1037700040F4000C41F400002CF07F4120F07F4029
:1037800000B58142A2EB03020FF2081CACEB504ED5
:10379000C0F100009EF800E04FEA4E0E00FB0EFC68
:1037A00038BF49004FEA2C1C02F5FA020CFB0EF35D
:1037B0004FEACE1E4FEA112C4FEAC1210EEB635E99
:1037C00042EB22420EFB0CFC4FEA1C5300FB0311A0
:1037D0004FEA112C4FEA01310EFB0CFC4FEADC4C96
:1037E00000FB0C11C14228BF09184CEB03335DF8F4
:1037F00004EB10EB410143EBC250B2F57C0F38BF34
:10380000704729D512F0F00F1CBF00F1C04000F046
:1038100000407047008182838485868788898B8CED
:103820008D8E8F919293959697999A9C9D9FA0A229
:10383000A3A5A7A8AAACAEB0B2B3B5B7B9BCBEC079
:10384000C2C5C7C9CCCED1D4D7D9DCDFE2E6E9EC1A
:10385000F0F3F7FAFE0000004FEA400C0CF1807C18
:10386000BCF17E4F28BF7047B0F1C04000F077B97F
:1038700090EA010F0CEAD11348BF42F4807262450E
:1038800038BF634507D213F47F0F16D080EA0100DA
:1038900000F00040704710B500F01BF9097EFC3EB7
:1038A00000F005B880EA010000F00040704780EAAF
:1038B000010000F0004000F052B912F47F0F04BF85
:1038C0000248704780EA010000F049B90000C07F5B
:1038D000C10DD1F19E0206DB4FEA002343F0004305
:1038E00023FA02F07047004207D54FEA4001B1F1D8
:1038F000FE4F02D24FF00000704710B500F0E9F81B
:1039000049922480002070476FEA20007047000031
:1039100010F0004148BF4042B0FA80F310FA03F2C1
:10392000C3F19D030BD051EAC35101EB12205306A2
:1039300038BF704700F1010008BF20F00100704758
:10394000B0FA80F310FA03F2C3F19D030AD0D9054F
:1039500001EB1220530638BF704700F1010008BF89
:1039600020F001007047000050EA010C00F11380C4
:103970001CF5000F58BFBCF5000F01D488427047FA
:1039800007D710F5000F58BF11F5000F15D4884266
:103990007047894270471CF5000F04D5BCF5000F35
:1039A000F7D5814270474FF0807C1CEB400F38BF49
:1039B0001CEB410F01D28142704710B500F089F82D
:1039C000922449004FF000504FF08051FFF7B2BEF3
:1039D0004FF47F0C1CEAD0121EBF1CEAD11392EAEE
:1039E0000C0F93EA0C0F00F0478090EA010F48BFDC
:1039F00042F480724FF0004C4CEA00204CEA012166
:103A000002EB0302A0FB0113A2F50002002918BF7C
:103A100043F001035B0028BF4FEA330342EB22422D
:103A20005FEA132C4CEBC2502EBFBCEB436FB2F5D8
:103A30007C0F70474FEA036CBCF1004F08BF20F0C9
:103A40000100B2F57C0F38BF70470BD582F0FF0242
:103A500012F5803FC8BF704700F1C040D8BF00F0EA
:103A60000040704700F5000C5FEA4C0C48BF7047FF
:103A7000B0F1C04000F073B890EA010F0CEAD11326
:103A800048BF42F48072624538BF634504D280EA81
:103A9000010000F00040704710B500F01AF800BFB8
:103AA0008900013E00F007B800F009B85FEA410C58
:103AB0005FEA1C6C08D080EA010000F050B85FEAB1
:103AC000400C5FEA1C6CF6D14FF00040A0F580007E
:103AD00070470EF1020E2EF0030E5EF8044B2442E6
:103AE00004D44FEA4102B2F17F4F11D84FEA4003AC
:103AF000B3F17F4F0CD80ED14FEAD07CB2F17F4F9B
:103B00000CEB4C0C0CF1020C08BF4CEBD17C04E02C
:103B10004FF0080C01E04FEAD17C0CEB4C0324FA87
:103B200003F404F00704B4F1040C06D20EEB840C89
:103B3000BDE810404CF0010C6047DFE80CF00708CE
:103B400002024FF00040A0F5800010BD0846420080
:103B500018BFD2F1807288BF00F0004010BDFF2175
:103B600041EAD050C005704751EA000C00F11380C3
:103B70001CF5000F58BFBCF5000F01D481427047FF
:103B800007D711F5000F58BF10F5000F15D481426B
:103B90007047894270471CF5000F04D5BCF5000F33
:103BA000F7D5884270474FF0807C1CEB410F38BF3F
:103BB0001CEB400F01D28842704780EA010081EA85
:103BC000000180EA0100FFF7F8BE000090EA010F53
:103BD00048BF81F000413FF552AD421A04D882F04F
:103BE0000042A0EB020011444FEAD0524FF07F4C4C
:103BF0001CEA410FA2EBD15318BF9CEA026F4AD0D6
:103C00004FF0004C4CEA00204CEA012121FA03FC61
:103C1000B0EB0C0C0FD412F0FE0F36D05FEA4C0064
:103C20001DD5001240EBC25038BF70471CF03F0F4B
:103C300018BF70470BE0A2F101025FEA1C2040EBC5
:103C4000C25038BF70471CF07F0F18BF7047C3F1D8
:103C50002003994014BF401E20F0010070478008E7
:103C60004FEA122308BF7047B0FA80FCA2EB0C02A7
:103C7000CCF1280C60FA0CF093EA122F04BF00EB91
:103C8000C25070474FEAC3707047130A5FEADC10F6
:103C900008BF7047F6E79CEA026F04D010EA5C0F99
:103CA00008BF0020704710B5FFF713FF40DFF63E56
:103CB00081F0004070470CF00F03092B08BF08206B
:103CC00000F059800A2B0BD0082B18BF704708BF93
:103CD0001CF0400F0AD04FF000004FF00001704779
:103CE0001CF0400F18BF4FF0004070471CF0100F41
:103CF00008D020F0704300F07F4242EAD3014FEA3F
:103D00004370704700F0604021F07F4242EA0002B9
:103D100001F07F4040EA727070474FF0FF0C4CF4A6
:103D2000E06C1CEA11531CBF9CEA030C9445C2BF13
:103D3000DA4201EB02517047002B0DD0BCF1000FAD
:103D40000FD0002A01F00041A4BF41F0E04141F052
:103D50007F614FF00000704701F000414FF000001C
:103D6000704750EA01334FF09B0C18BF4CF0806C49
:103D70007EF442AF70471CF4801F11D01CF4E02F7A
:103D800003D06FEACC31490070474FF04050EFF359
:103D9000008222F0704242EA000282F300887047FB
:103DA0004FF0000070470000000000000000F03FEE
:103DB000000000000000F83F0000000000000000CC
:103DC0000000004003B8E23F0000000000000000D7
:103DD00006D0CF43EBFD4C3E033333333333E33F65
:103DE000FFAB6FDBB66DDB3F4D268F515555D53F91
:103DF00001411DA96074D13F65DBC9934A86CD3F5F
:103E0000EF4E454A287ECA3F3E5555555555C53F4C
:103E100093BDBE166CC166BF2CDE25AF6A56113F3E
:103E2000F16BD2C541BDBBBED0A4BE726937663E40
:103E30000000000000000000583E000800000020C4
:103E40007800000028010008D03E0008780000201B
:103E50009807000044010008A5AE00FC0000000027
:103E6000000000000000000000A24A040000000062
:103E7000000000000102030406070809005A0000C0
:103E800000A500000000000000000000000000008D
:103E90000000000000000000000000000000000022
:103EA0000000000000000000000000000000000012
:103EB00000000102030401020304060708090204CA
:103EC00006080000000000000000000000000000E4
:04000005080000ED02
:00000001FF
